{
  "_format": "hh-sol-artifact-1",
  "contractName": "StringHasher",
  "sourceName": "contracts/StringHasher.sol",
  "abi": [
    {
      "inputs": [],
      "name": "UserAlreadyExist",
      "type": "error"
    },
    {
      "inputs": [],
      "name": "UserDoesNotExist",
      "type": "error"
    },
    {
      "anonymous": false,
      "inputs": [
        {
          "indexed": false,
          "internalType": "string",
          "name": "userId",
          "type": "string"
        },
        {
          "indexed": false,
          "internalType": "bytes32",
          "name": "hash",
          "type": "bytes32"
        }
      ],
      "name": "UserHashAdded",
      "type": "event"
    },
    {
      "anonymous": false,
      "inputs": [
        {
          "indexed": false,
          "internalType": "string",
          "name": "userId",
          "type": "string"
        },
        {
          "indexed": false,
          "internalType": "bytes32",
          "name": "hash",
          "type": "bytes32"
        }
      ],
      "name": "UserHashUpdated",
      "type": "event"
    },
    {
      "inputs": [
        {
          "internalType": "string",
          "name": "_id",
          "type": "string"
        }
      ],
      "name": "getUserHash",
      "outputs": [
        {
          "internalType": "bytes32",
          "name": "userHash",
          "type": "bytes32"
        }
      ],
      "stateMutability": "view",
      "type": "function"
    },
    {
      "inputs": [
        {
          "internalType": "string",
          "name": "concatenatedString",
          "type": "string"
        }
      ],
      "name": "hashAndStore",
      "outputs": [
        {
          "internalType": "bytes32",
          "name": "",
          "type": "bytes32"
        }
      ],
      "stateMutability": "nonpayable",
      "type": "function"
    },
    {
      "inputs": [
        {
          "internalType": "string",
          "name": "_id",
          "type": "string"
        },
        {
          "internalType": "string",
          "name": "concatenatedString",
          "type": "string"
        }
      ],
      "name": "hashAndStoreWithId",
      "outputs": [
        {
          "internalType": "bytes32",
          "name": "",
          "type": "bytes32"
        }
      ],
      "stateMutability": "nonpayable",
      "type": "function"
    },
    {
      "inputs": [
        {
          "internalType": "string",
          "name": "_id",
          "type": "string"
        },
        {
          "internalType": "string",
          "name": "concatenatedString",
          "type": "string"
        }
      ],
      "name": "updateUserHash",
      "outputs": [
        {
          "internalType": "bytes32",
          "name": "userHash",
          "type": "bytes32"
        }
      ],
      "stateMutability": "nonpayable",
      "type": "function"
    },
    {
      "inputs": [
        {
          "internalType": "string",
          "name": "inputString",
          "type": "string"
        }
      ],
      "name": "validateString",
      "outputs": [
        {
          "internalType": "bool",
          "name": "",
          "type": "bool"
        }
      ],
      "stateMutability": "view",
      "type": "function"
    },
    {
      "inputs": [
        {
          "internalType": "string",
          "name": "_id",
          "type": "string"
        },
        {
          "internalType": "string",
          "name": "concatenatedString",
          "type": "string"
        }
      ],
      "name": "verifyUserHash",
      "outputs": [
        {
          "internalType": "bool",
          "name": "",
          "type": "bool"
        }
      ],
      "stateMutability": "view",
      "type": "function"
    },
    {
      "inputs": [
        {
          "internalType": "string",
          "name": "_id",
          "type": "string"
        },
        {
          "internalType": "bytes32",
          "name": "inputHash",
          "type": "bytes32"
        }
      ],
      "name": "verifyUserInputHash",
      "outputs": [
        {
          "internalType": "bool",
          "name": "",
          "type": "bool"
        }
      ],
      "stateMutability": "view",
      "type": "function"
    }
  ],
  "bytecode": "0x608060405234801561001057600080fd5b50610da3806100206000396000f3fe608060405234801561001057600080fd5b506004361061007d5760003560e01c806337e188fa1161005b57806337e188fa14610112578063b80a31eb14610142578063c0a2c03c14610172578063d0e3496a146101a25761007d565b8063105f95a9146100825780632e4810ba146100b257806335796a68146100e2575b600080fd5b61009c600480360381019061009791906107d0565b6101d2565b6040516100a99190610834565b60405180910390f35b6100cc60048036038101906100c7919061084f565b610226565b6040516100d99190610834565b60405180910390f35b6100fc60048036038101906100f7919061084f565b6102cd565b60405161010991906108e0565b60405180910390f35b61012c60048036038101906101279190610927565b610428565b6040516101399190610834565b60405180910390f35b61015c6004803603810190610157919061084f565b6104a3565b60405161016991906108e0565b60405180910390f35b61018c600480360381019061018791906107d0565b61059e565b60405161019991906108e0565b60405180910390f35b6101bc60048036038101906101b791906107d0565b610616565b6040516101c991906108e0565b60405180910390f35b600080826040516020016101e691906109f4565b60405160208183030381529060405280519060200120905060008082815260200190815260200160002060009054906101000a900460ff16915050919050565b60008060018460405161023991906109f4565b908152602001604051809103902090508060020160009054906101000a900460ff16610291576040517f907b361f00000000000000000000000000000000000000000000000000000000815260040160405180910390fd5b6000836040516020016102a491906109f4565b604051602081830303815290604052805190602001209050808260010154149250505092915050565b60006001836040516102df91906109f4565b908152602001604051809103902060020160009054906101000a900460ff1615610335576040517f3ee20b6900000000000000000000000000000000000000000000000000000000815260040160405180910390fd5b60008260405160200161034891906109f4565b604051602081830303815290604052805190602001209050600060405180606001604052808681526020018381526020016001151581525090508060018660405161039391906109f4565b908152602001604051809103902060008201518160000190816103b69190610c21565b506020820151816001015560408201518160020160006101000a81548160ff0219169083151502179055509050507f2d2d00f42e5751af46d6658c8f57a6883f895b1b28017c6c962c7c516e8c0e608583604051610415929190610d3d565b60405180910390a1819250505092915050565b60008060018460405161043b91906109f4565b908152602001604051809103902090508060020160009054906101000a900460ff16610493576040517f907b361f00000000000000000000000000000000000000000000000000000000815260040160405180910390fd5b8281600101541491505092915050565b60006001836040516104b591906109f4565b908152602001604051809103902060020160009054906101000a900460ff1661050a576040517f907b361f00000000000000000000000000000000000000000000000000000000815260040160405180910390fd5b60008260405160200161051d91906109f4565b6040516020818303038152906040528051906020012090508060018560405161054691906109f4565b9081526020016040518091039020600101819055507fa0deab01684757a3d15809e1ae9cf3950804cceafa36b1c049dec89cab053733848260405161058c929190610d3d565b60405180910390a18091505092915050565b6000806001836040516105b191906109f4565b908152602001604051809103902090508060020160009054906101000a900460ff16610609576040517f907b361f00000000000000000000000000000000000000000000000000000000815260040160405180910390fd5b8060010154915050919050565b6000808260405160200161062a91906109f4565b604051602081830303815290604052805190602001209050600160008083815260200190815260200160002060006101000a81548160ff02191690831515021790555080915050919050565b6000604051905090565b600080fd5b600080fd5b600080fd5b600080fd5b6000601f19601f8301169050919050565b7f4e487b7100000000000000000000000000000000000000000000000000000000600052604160045260246000fd5b6106dd82610694565b810181811067ffffffffffffffff821117156106fc576106fb6106a5565b5b80604052505050565b600061070f610676565b905061071b82826106d4565b919050565b600067ffffffffffffffff82111561073b5761073a6106a5565b5b61074482610694565b9050602081019050919050565b82818337600083830152505050565b600061077361076e84610720565b610705565b90508281526020810184848401111561078f5761078e61068f565b5b61079a848285610751565b509392505050565b600082601f8301126107b7576107b661068a565b5b81356107c7848260208601610760565b91505092915050565b6000602082840312156107e6576107e5610680565b5b600082013567ffffffffffffffff81111561080457610803610685565b5b610810848285016107a2565b91505092915050565b60008115159050919050565b61082e81610819565b82525050565b60006020820190506108496000830184610825565b92915050565b6000806040838503121561086657610865610680565b5b600083013567ffffffffffffffff81111561088457610883610685565b5b610890858286016107a2565b925050602083013567ffffffffffffffff8111156108b1576108b0610685565b5b6108bd858286016107a2565b9150509250929050565b6000819050919050565b6108da816108c7565b82525050565b60006020820190506108f560008301846108d1565b92915050565b610904816108c7565b811461090f57600080fd5b50565b600081359050610921816108fb565b92915050565b6000806040838503121561093e5761093d610680565b5b600083013567ffffffffffffffff81111561095c5761095b610685565b5b610968858286016107a2565b925050602061097985828601610912565b9150509250929050565b600081519050919050565b600081905092915050565b60005b838110156109b757808201518184015260208101905061099c565b60008484015250505050565b60006109ce82610983565b6109d8818561098e565b93506109e8818560208601610999565b80840191505092915050565b6000610a0082846109c3565b915081905092915050565b7f4e487b7100000000000000000000000000000000000000000000000000000000600052602260045260246000fd5b60006002820490506001821680610a5257607f821691505b602082108103610a6557610a64610a0b565b5b50919050565b60008190508160005260206000209050919050565b60006020601f8301049050919050565b600082821b905092915050565b600060088302610acd7fffffffffffffffffffffffffffffffffffffffffffffffffffffffffffffffff82610a90565b610ad78683610a90565b95508019841693508086168417925050509392505050565b6000819050919050565b6000819050919050565b6000610b1e610b19610b1484610aef565b610af9565b610aef565b9050919050565b6000819050919050565b610b3883610b03565b610b4c610b4482610b25565b848454610a9d565b825550505050565b600090565b610b61610b54565b610b6c818484610b2f565b505050565b5b81811015610b9057610b85600082610b59565b600181019050610b72565b5050565b601f821115610bd557610ba681610a6b565b610baf84610a80565b81016020851015610bbe578190505b610bd2610bca85610a80565b830182610b71565b50505b505050565b600082821c905092915050565b6000610bf860001984600802610bda565b1980831691505092915050565b6000610c118383610be7565b9150826002028217905092915050565b610c2a82610983565b67ffffffffffffffff811115610c4357610c426106a5565b5b610c4d8254610a3a565b610c58828285610b94565b600060209050601f831160018114610c8b5760008415610c79578287015190505b610c838582610c05565b865550610ceb565b601f198416610c9986610a6b565b60005b82811015610cc157848901518255600182019150602085019450602081019050610c9c565b86831015610cde5784890151610cda601f891682610be7565b8355505b6001600288020188555050505b505050505050565b600082825260208201905092915050565b6000610d0f82610983565b610d198185610cf3565b9350610d29818560208601610999565b610d3281610694565b840191505092915050565b60006040820190508181036000830152610d578185610d04565b9050610d6660208301846108d1565b939250505056fea26469706673582212209fafbfe73f139bcb554ad657f5b72b2524247166a30117248e680c703b6661ae64736f6c63430008180033",
  "linkReferences": {},
  "deployedLinkReferences": {}
}