{
  "_format": "hh-sol-artifact-1",
  "contractName": "StringHasher",
  "sourceName": "contracts/StringHasher.sol",
  "abi": [
    {
      "inputs": [],
      "name": "UserAlreadyExist",
      "type": "error"
    },
    {
      "inputs": [],
      "name": "UserDoesNotExist",
      "type": "error"
    },
    {
      "anonymous": false,
      "inputs": [
        {
          "indexed": false,
          "internalType": "string",
          "name": "userId",
          "type": "string"
        },
        {
          "indexed": false,
          "internalType": "bytes32",
          "name": "hash",
          "type": "bytes32"
        }
      ],
      "name": "UserHashAdded",
      "type": "event"
    },
    {
      "anonymous": false,
      "inputs": [
        {
          "indexed": false,
          "internalType": "string",
          "name": "userId",
          "type": "string"
        },
        {
          "indexed": false,
          "internalType": "bytes32",
          "name": "hash",
          "type": "bytes32"
        }
      ],
      "name": "UserHashUpdated",
      "type": "event"
    },
    {
      "inputs": [
        {
          "internalType": "string",
          "name": "concatenatedString",
          "type": "string"
        }
      ],
      "name": "hashAndStore",
      "outputs": [
        {
          "internalType": "bytes32",
          "name": "",
          "type": "bytes32"
        }
      ],
      "stateMutability": "nonpayable",
      "type": "function"
    },
    {
      "inputs": [
        {
          "internalType": "string",
          "name": "_id",
          "type": "string"
        },
        {
          "internalType": "string",
          "name": "concatenatedString",
          "type": "string"
        }
      ],
      "name": "hashAndStoreWithId",
      "outputs": [
        {
          "internalType": "bytes32",
          "name": "",
          "type": "bytes32"
        }
      ],
      "stateMutability": "nonpayable",
      "type": "function"
    },
    {
      "inputs": [
        {
          "internalType": "string",
          "name": "_id",
          "type": "string"
        },
        {
          "internalType": "string",
          "name": "concatenatedString",
          "type": "string"
        }
      ],
      "name": "updateUserHash",
      "outputs": [
        {
          "internalType": "bytes32",
          "name": "",
          "type": "bytes32"
        }
      ],
      "stateMutability": "nonpayable",
      "type": "function"
    },
    {
      "inputs": [
        {
          "internalType": "string",
          "name": "inputString",
          "type": "string"
        }
      ],
      "name": "validateString",
      "outputs": [
        {
          "internalType": "bool",
          "name": "",
          "type": "bool"
        }
      ],
      "stateMutability": "view",
      "type": "function"
    },
    {
      "inputs": [
        {
          "internalType": "string",
          "name": "_id",
          "type": "string"
        },
        {
          "internalType": "string",
          "name": "concatenatedString",
          "type": "string"
        }
      ],
      "name": "verifyUserHash",
      "outputs": [
        {
          "internalType": "bool",
          "name": "",
          "type": "bool"
        }
      ],
      "stateMutability": "view",
      "type": "function"
    },
    {
      "inputs": [
        {
          "internalType": "string",
          "name": "_id",
          "type": "string"
        },
        {
          "internalType": "bytes32",
          "name": "inputHash",
          "type": "bytes32"
        }
      ],
      "name": "verifyUserInputHash",
      "outputs": [
        {
          "internalType": "bool",
          "name": "",
          "type": "bool"
        }
      ],
      "stateMutability": "view",
      "type": "function"
    }
  ],
  "bytecode": "0x608060405234801561001057600080fd5b50610ce0806100206000396000f3fe608060405234801561001057600080fd5b50600436106100625760003560e01c8063105f95a9146100675780632e4810ba1461009757806335796a68146100c757806337e188fa146100f7578063b80a31eb14610127578063d0e3496a14610157575b600080fd5b610081600480360381019061007c919061070d565b610187565b60405161008e9190610771565b60405180910390f35b6100b160048036038101906100ac919061078c565b6101db565b6040516100be9190610771565b60405180910390f35b6100e160048036038101906100dc919061078c565b610282565b6040516100ee919061081d565b60405180910390f35b610111600480360381019061010c9190610864565b6103dd565b60405161011e9190610771565b60405180910390f35b610141600480360381019061013c919061078c565b610458565b60405161014e919061081d565b60405180910390f35b610171600480360381019061016c919061070d565b610553565b60405161017e919061081d565b60405180910390f35b6000808260405160200161019b9190610931565b60405160208183030381529060405280519060200120905060008082815260200190815260200160002060009054906101000a900460ff16915050919050565b6000806001846040516101ee9190610931565b908152602001604051809103902090508060020160009054906101000a900460ff16610246576040517f907b361f00000000000000000000000000000000000000000000000000000000815260040160405180910390fd5b6000836040516020016102599190610931565b604051602081830303815290604052805190602001209050808260010154149250505092915050565b60006001836040516102949190610931565b908152602001604051809103902060020160009054906101000a900460ff16156102ea576040517f3ee20b6900000000000000000000000000000000000000000000000000000000815260040160405180910390fd5b6000826040516020016102fd9190610931565b60405160208183030381529060405280519060200120905060006040518060600160405280868152602001838152602001600115158152509050806001866040516103489190610931565b9081526020016040518091039020600082015181600001908161036b9190610b5e565b506020820151816001015560408201518160020160006101000a81548160ff0219169083151502179055509050507f2d2d00f42e5751af46d6658c8f57a6883f895b1b28017c6c962c7c516e8c0e6085836040516103ca929190610c7a565b60405180910390a1819250505092915050565b6000806001846040516103f09190610931565b908152602001604051809103902090508060020160009054906101000a900460ff16610448576040517f907b361f00000000000000000000000000000000000000000000000000000000815260040160405180910390fd5b8281600101541491505092915050565b600060018360405161046a9190610931565b908152602001604051809103902060020160009054906101000a900460ff166104bf576040517f907b361f00000000000000000000000000000000000000000000000000000000815260040160405180910390fd5b6000826040516020016104d29190610931565b604051602081830303815290604052805190602001209050806001856040516104fb9190610931565b9081526020016040518091039020600101819055507fa0deab01684757a3d15809e1ae9cf3950804cceafa36b1c049dec89cab0537338482604051610541929190610c7a565b60405180910390a18091505092915050565b600080826040516020016105679190610931565b604051602081830303815290604052805190602001209050600160008083815260200190815260200160002060006101000a81548160ff02191690831515021790555080915050919050565b6000604051905090565b600080fd5b600080fd5b600080fd5b600080fd5b6000601f19601f8301169050919050565b7f4e487b7100000000000000000000000000000000000000000000000000000000600052604160045260246000fd5b61061a826105d1565b810181811067ffffffffffffffff82111715610639576106386105e2565b5b80604052505050565b600061064c6105b3565b90506106588282610611565b919050565b600067ffffffffffffffff821115610678576106776105e2565b5b610681826105d1565b9050602081019050919050565b82818337600083830152505050565b60006106b06106ab8461065d565b610642565b9050828152602081018484840111156106cc576106cb6105cc565b5b6106d784828561068e565b509392505050565b600082601f8301126106f4576106f36105c7565b5b813561070484826020860161069d565b91505092915050565b600060208284031215610723576107226105bd565b5b600082013567ffffffffffffffff811115610741576107406105c2565b5b61074d848285016106df565b91505092915050565b60008115159050919050565b61076b81610756565b82525050565b60006020820190506107866000830184610762565b92915050565b600080604083850312156107a3576107a26105bd565b5b600083013567ffffffffffffffff8111156107c1576107c06105c2565b5b6107cd858286016106df565b925050602083013567ffffffffffffffff8111156107ee576107ed6105c2565b5b6107fa858286016106df565b9150509250929050565b6000819050919050565b61081781610804565b82525050565b6000602082019050610832600083018461080e565b92915050565b61084181610804565b811461084c57600080fd5b50565b60008135905061085e81610838565b92915050565b6000806040838503121561087b5761087a6105bd565b5b600083013567ffffffffffffffff811115610899576108986105c2565b5b6108a5858286016106df565b92505060206108b68582860161084f565b9150509250929050565b600081519050919050565b600081905092915050565b60005b838110156108f45780820151818401526020810190506108d9565b60008484015250505050565b600061090b826108c0565b61091581856108cb565b93506109258185602086016108d6565b80840191505092915050565b600061093d8284610900565b915081905092915050565b7f4e487b7100000000000000000000000000000000000000000000000000000000600052602260045260246000fd5b6000600282049050600182168061098f57607f821691505b6020821081036109a2576109a1610948565b5b50919050565b60008190508160005260206000209050919050565b60006020601f8301049050919050565b600082821b905092915050565b600060088302610a0a7fffffffffffffffffffffffffffffffffffffffffffffffffffffffffffffffff826109cd565b610a1486836109cd565b95508019841693508086168417925050509392505050565b6000819050919050565b6000819050919050565b6000610a5b610a56610a5184610a2c565b610a36565b610a2c565b9050919050565b6000819050919050565b610a7583610a40565b610a89610a8182610a62565b8484546109da565b825550505050565b600090565b610a9e610a91565b610aa9818484610a6c565b505050565b5b81811015610acd57610ac2600082610a96565b600181019050610aaf565b5050565b601f821115610b1257610ae3816109a8565b610aec846109bd565b81016020851015610afb578190505b610b0f610b07856109bd565b830182610aae565b50505b505050565b600082821c905092915050565b6000610b3560001984600802610b17565b1980831691505092915050565b6000610b4e8383610b24565b9150826002028217905092915050565b610b67826108c0565b67ffffffffffffffff811115610b8057610b7f6105e2565b5b610b8a8254610977565b610b95828285610ad1565b600060209050601f831160018114610bc85760008415610bb6578287015190505b610bc08582610b42565b865550610c28565b601f198416610bd6866109a8565b60005b82811015610bfe57848901518255600182019150602085019450602081019050610bd9565b86831015610c1b5784890151610c17601f891682610b24565b8355505b6001600288020188555050505b505050505050565b600082825260208201905092915050565b6000610c4c826108c0565b610c568185610c30565b9350610c668185602086016108d6565b610c6f816105d1565b840191505092915050565b60006040820190508181036000830152610c948185610c41565b9050610ca3602083018461080e565b939250505056fea2646970667358221220dfdcd862e5ff3c6a9119545afa3c8d216fbbf21ff3b056892920590b4f5a6b9264736f6c63430008180033",
  "linkReferences": {},
  "deployedLinkReferences": {}
}